:030000000208C72C
:0C08C700787FE4F6D8FD75810702080078
:0708620075A0087F0A7E006B
:10086900E4FDFCC3ED9FEC9E5015E4FBFA0BBB00C5
:0F087900010ABA04F8BBFBF50DBD00010C80E4C9
:01088800224D
:1008A900AD07AC06ED25E0FBEC33FAED7807CEA2F7
:0E08B900E713CE13D8F8FFEE4AFEEF4BFF22F6
:10088900AD07AC06ED7807C333CE33CED8F9FBAA52
:1008990006ECA2E713FEED13FFEE4AFEEF4BFF2233
:1008000090000020B12C12086275A00C12086975C6
:10081000A00412086975A00612086975A0021208E2
:100820006975A00312086975A00112086975A0090D
:10083000802A12086275A00912086975A0011208C1
:100840006975A00312086975A00212086975A006EF
:1008500012086975A00412086975A00C120869A332
:0208600080A175
:00000001FF
