:0300000002097979
:0C097900787FE4F6D8FD75811902087D36
:10093E007F381209697F0E1209697F011209697FDA
:09094E00061209697F80020969A3
:100969008FB0C2A0120916C2A27F0A7E0002091E18
:080957001208E9FF3395E0FEF0
:0A095F008FB0D2A0120916C2A22226
:0808B4008B0F8A1089118D12CF
:1008BC00E4F513F514C3E5149512E5139400501CDC
:1008CC00AB0FAA10A9118514828513831209571234
:0C08DC00091A0514E51470DD051380D91D
:0108E80022ED
:0A0800008B088A09890A8C0B8D0C05
:10080A007F011209697F80120969E50C24FFF50E40
:10081A00E50B34FFF50DC3E50D9400401CAB08AAA7
:10082A0009A90A850E82850D8312095712091AE54C
:09083A000E150E70E1150D80DDB4
:010843002292
:08091600C2A1D2A27F017E0004
:10091E00E4FDFCC3ED9FEC9E5015E4FBFA0BBB000F
:0F092E00010ABA04F8BBFBF50DBD00010C80E413
:01093D002297
:020844008F150E
:100846007F86120969E51575F00A842430FFE515DF
:1008560075F00A84E5F02430F5167517DF7E001270
:10086600095FAF167E0012095FAF177E0012095F9F
:070876007F437E0002095FD1
:10087D0012093ED2A7D2A6D2A57F0A7E0012091E6A
:10088D00D2A57F0112091EC2A520A7FDC2A6AF9059
:10089D007518008F19EF25E0FF1208447F0A7E00BE
:0708AD0012091ED2A680D241
:1008E900BB010CE58229F582E5833AF583E02250C4
:1008F90006E92582F8E622BBFE06E92582F8E2220E
:0D090900E58229F582E5833AF583E4932227
:00000001FF
