:0300000002097280
:0C097200787FE4F6D8FD7581190208B208
:100937007F381209627F0E1209627F011209627FF6
:09094700061209627F80020962B8
:100962008FB0C2A012090FC2A27F0A7E000209172D
:080950001208E2FF3395E0FEFE
:0A0958008FB0D2A012090FC2A22234
:08087D008B0F8A1089118D1206
:10088500E4F513F514C3E5149512E5139400501C13
:10089500AB0FAA10A9118514828513831209501272
:0C08A50009130514E51470DD051380D95B
:0108B1002224
:0A0800008B088A09890A8C0B8D0C05
:10080A007F011209627F80120962E50C24FFF50E4E
:10081A00E50B34FFF50DC3E50D9400401CAB08AAA7
:10082A0009A90A850E82850D83120950120913E55A
:09083A000E150E70E1150D80DDB4
:010843002292
:08090F00C2A1D2A27F017E000B
:10091700E4FDFCC3ED9FEC9E5015E4FBFA0BBB0016
:0F092700010ABA04F8BBFBF50DBD00010C80E41A
:01093600229E
:020844008F170C
:100846007F86120962E51775F00A842430FFE517E2
:1008560075F00A84E5F02430F5187519DF7E00126C
:100866000958AF187E00120958AF197E00120958B0
:070876007F437E00020958D8
:1008B200E4F516120937D2A7D2A67F0A7E001209E2
:1008C20017D2A57F01120917C2A520A7FDC2A685CE
:1008D2009015AF151208447F0A7E0012091780D8BE
:1008E200BB010CE58229F582E5833AF583E02250CB
:1008F20006E92582F8E622BBFE06E92582F8E22215
:0D090200E58229F582E5833AF583E493222E
:00000001FF
