:030000000208F7FC
:0C08F700787FE4F6D8FD75810F020841FF
:1008CE007F381208E77F0E1208E77F011208E77FD4
:0908DE00061208E77F800208E71A
:1008E7008FB0C2A01208A6C2A27F0A7E000208AE7D
:0A0903008FB0D2A01208A6C2A222F3
:080800008B088A09890A8D0B9F
:10080800E4F50CF50DC3E50D950BE50C94005028A7
:10081800AB08AA09A90A850D82850C83120879FFFD
:100828003395E0FE1209037F017E001208AE050D24
:08083800E50D70D1050C80CD27
:010840002295
:0808A600C2A1D2A27F0A7E006C
:1008AE00E4FDFCC3ED9FEC9E5015E4FBFA0BBB0080
:0F08BE00010ABA04F8BBFBF50DBD00010C80E484
:0108CD002208
:100841001208CE7590FFE4F5B0D2A7D2A6D2A512B8
:1008510008AAD2A51208AEC2A520A7FDC2A6AF90D4
:10086100750E008F0F7F011208E7AF0FAE0E120950
:08087100031208AAD2A680D7E9
:10087900BB010CE58229F582E5833AF583E0225034
:1008890006E92582F8E622BBFE06E92582F8E2227E
:0D089900E58229F582E5833AF583E4932298
:00000001FF
